:020000040800F2
:10000000D0040020D1000008310F0008BF0D000807
:1000100000000000000000000000000000000000E0
:10002000000000000000000000000000350F000884
:100030000000000000000000330F0008370F000828
:10004000E3000008E3000008E3000008E300000804
:10005000E3000008E3000008E3000008E3000008F4
:10006000E3000008E3000008E3000008E3000008E4
:10007000E30000088D0F0008E3000008E30000081B
:10008000E3000008E300000800000000E3000008AF
:10009000E3000008E3000008E3000008E3000008B4
:1000A000E3000008E3000008E3000008E3000008A4
:1000B000E300000800000000E30000080348854654
:1000C00000F08EF80048004791190008D004002085
:1000D0000448804704480047FEE7FEE7FEE7FEE7E6
:1000E000FEE7FEE7890F0008BD00000830B50B46AB
:1000F000014600202022012409E00D46D5409D4202
:1001000005D31D469540491B254695404019154687
:10011000521E002DF1DC30BDF0B51FB406460020A4
:1001200082B005464024019100901BE001992246CF
:100130000F46304600F020F8049A059B801A99413A
:1001400010D310461946224600F039F8361A8F416E
:100150000197224601200021009F00F030F8381856
:100160004D4100902046641E0028DFDC019B009872
:100170002946324607B0F0BD10B5202A04DB0846F8
:10018000203AD040002110BD0B46D340D04020245F
:10019000A21A91400843194610BDD2B201E0027084
:1001A000401C491EFBD270470022F6E710B51346EB
:1001B0000A4604461946FFF7F0FF204610BD10B569
:1001C000202A04DB0146203A9140002010BD9140D6
:1001D00020239C1A0346E3401943904010BD0000C1
:1001E000064C0125064E05E0E36807CC2B430C3C8A
:1001F00098471034B442F7D3FFF764FFF81A0008A9
:10020000181B00087047000070B5044600F0BEF8E7
:100210000546601C02D004480078241800F0B6F8A7
:10022000401BA042FAD370BD7C000020F8B500222C
:100230008DE001249440A44623407DD04C68022CDC
:1002400001D0122C0CD1D408A4002618356A54070A
:10025000E40E0F27A740BD430F69A7402F43376225
:10026000066855000324AC400F79A643BF07BF0FB3
:10027000AF40374307604E68012E05D0022E03D0F1
:10028000112E01D0122E0ED18668CF68A643AF4042
:100290003743876047686646B7430E79F606F60F20
:1002A00096403E434660C668A6438C68AC403443E3
:1002B000C4604C68E40049D5284CA5690126354343
:1002C000A561A469950834400094254CAD002F1910
:1002D000BD689407240F0F26A640B5430926F606ED
:1002E000B04201D100260FE01E4EB04201D10126DE
:1002F0000AE01D4EB04201D1022605E01B4EB0427D
:1003000001D1032600E00526A6402E43BE60184D0D
:100310002C684E689C43F60300D51C432C606C6827
:100320004E689C43B60300D51C436C60AC684E68B5
:100330009C43F60202D500E008E01C43AC60EC6888
:100340004E689C43B60200D51C43EC60521C0B68FF
:100350001C46D44000D06CE7F8BD000000100240FD
:10036000000001400004004800080048000C00485C
:10037000000401400069084000D001207047002AB5
:1003800001D0816170478162704700000148806838
:10039000704700007C0000200248816802788918BC
:1003A000816070477C00002010B50648016810226B
:1003B00011430160002000F007F800F027F800204A
:1003C00010BD00000020024070B504460D4D7D2098
:1003D0002978C000FFF78AFE01460B480068FFF746
:1003E00085FE00F0CFFA002809D1042C07D20022A4
:1003F0002146401E00F02AF800206C6070BD0120EC
:1004000070BD00007C0000208800002008B508486E
:100410008169012211438161816911400091C269A2
:1004200001040A43C261C0690840009008BD000091
:1004300000100240002805DBC106C90E01208840DB
:10044000014908607047000000E100E010B500F0CD
:1004500041FE10BDF8B50D4604005AD03A48006878
:10046000C007C00FA8420AD23748016849084900AE
:10047000294301600068C007C00FA84249D1206825
:10048000324E81070CD5400704D570680721090258
:10049000084370607068F0218843A1680843706069
:1004A0002078C00725D0606801280ED03168022866
:1004B0000ED0890700292CDA716889088900014368
:1004C0007160FFF763FF07460CE031688903F1E7CD
:1004D0008901EFE7FFF75AFFC11B1D48814201D98F
:1004E0000320F8BD70680C210840616889008842CB
:1004F000F0D115480168C907C90FA9420BD9016895
:1005000049084900294301600068C007C00FA8429C
:1005100001D00120F8BD2078400706D5706807217A
:1005200009028843E1680843706000F017F87168B9
:10053000084A0906090F515CC840074908600020B5
:10054000FFF742FF0020F8BD0020024000100240EB
:1005500088130000E81A00088800002010B514A0D5
:100560000FC888B06C460FC415A00FC80FC4184A36
:1005700053680C20194601401648042916D0082952
:1005800014D19902090F6C46645CD16A04AA090768
:10059000090F525CD90305D500231946FFF7BCFDAE
:1005A000214601E020460C4900F07BFD08B010BD5B
:1005B00002030405060708090A0B0C0D0E0F1010A4
:1005C0000102030405060708090A0B0C0D0E0F10A3
:1005D0000010024000127A0000093D00FEB5040040
:1005E00076D02078E44DC00753D068680007800FAC
:1005F000012807D068680007800F022809D16868C1
:10060000C00306D52868800343D560680028E7D07A
:100610003FE06068012813D001218904002814D02C
:10062000052818D02A68881082432A6028688843E1
:1006300028606068002820D0FFF7A8FE064618E072
:100640002868012109040843F2E7286801221204FE
:1006500090432860EAE72868084328602968012059
:10066000000401432960E4E7FFF790FE801B642843
:1006700075D828688003F7D50BE0FFF787FE06469C
:1006800004E0FFF783FE801B6428F1D8286880030C
:10069000F7D4207801268007002843DA686800072D
:1006A000800F07D068680007800F022811D16868A2
:1006B000C0030ED42868800702D5E068012807D15E
:1006C0002868F82188432169C9000843286029E087
:1006D0004DE1E0680028286815D030432860FFF716
:1006E00055FE074604E0FFF751FEC01B0228BFD8A5
:1006F00028688007F7D52968F82081432069C00061
:10070000014329600EE0400840002860FFF73EFEEC
:10071000074604E0FFF73AFEC01B0228A8D8286865
:100720008007F7D42078000722D5E0690028686A9E
:100730000ED030436862FFF729FE074604E0FFF75A
:1007400025FEC01B022893D8686A8007F7D50FE002
:10075000400840006862FFF719FE074605E09DE08B
:10076000FFF714FEC01B02288FD8686A8007F7D4F1
:10077000207804274007002860DA00200190E8690B
:10078000C00008D4E969B8060143E961E96901409C
:1007900001200091019079480168C90511D40168D0
:1007A000821511430160FFF7F1FD009005E0FFF7AE
:1007B000EDFD0099401A642870D870480068C005A3
:1007C000F5D5A06801280AD0002801D0052810D04E
:1007D000286A400840002862286AB84301E0286A75
:1007E00030432862A068002812D0FFF7CFFD0090A8
:1007F0000AE0286A38432862F1E7FFF7C7FD00994D
:10080000411A5F48814249D8286A8007F5D50DE032
:10081000FFF7BCFD009006E0FFF7B8FD0099411A14
:10082000574881423AD8286A8007F5D401980028B1
:1008300004D0E869012109078843E8612078C006EF
:1008400035D5606901280CD0401D686B23D0384332
:100850006863686B400840006863FFF797FD0646D1
:1008600022E0686B38436863686B30436863FFF766
:100870008DFD064604E0FFF789FD801B02285BD84A
:10088000686B8007F7D5686BF8218843A169C900B8
:10089000084368630BE0B8436863F4E74CE0FFF794
:1008A00075FD801B022847D8686B8007F7D4206A43
:1008B00000285ED069680907890F022942D0012704
:1008C0003F060228286805D0B8432860FFF75EFD80
:1008D000044633E0B8432860FFF758FD064604E0BD
:1008E000FFF754FD801B022826D828688001F7D422
:1008F000E86AE16A000900010843E862616AA06AE7
:10090000084369683D2212049143084368602868DF
:1009100038432860FFF73AFD044604E0FFF736FD50
:10092000001B022808D828688001F7D521E0FFF7CE
:100930002DFD001B022801D90320FEBD286880017F
:10094000F5D416E00128F8D06868E96A012212049B
:10095000636A02409A420AD10907E26A090F91428A
:1009600005D10F2189040840A16A884201D00120E5
:10097000FEBD0020FEBD00000010024000700040DF
:1009800088130000094910B5401E884201D9012092
:1009900010BD074C60610321081F00F09BFB002085
:1009A000A06107202061002010BD0000FFFFFF00B4
:1009B00000E000E0174A01211078931D48401070B4
:1009C0005078401CC1B2002051703C2903D15070B6
:1009D0001978491C197019780A2903D118705978A7
:1009E000491C59705978062903D158709978491CC7
:1009F000997099780A2903D19870D978491CD970CF
:100A0000D978022904D19978042901D1D870987035
:100A1000704700000000002070477047F0B50246A4
:100A20002032137F012B21D0012616770223537722
:100A300003685D689C687027BD430F682F435F6043
:100A400000680B4B984208D0B307984205D0094B79
:100A5000984202D0084B984204D1802349689C43B5
:100A600021438160567700201077F0BD0220F0BD51
:100A7000002C0140000400400040014070B504001B
:100A800005D025462035687F002802D006E00120E9
:100A900070BD00202877204600F00AF80220687711
:100AA000211D206800F07CFA01206877002070BDCD
:100AB00008B50068094988420FD109488269C11404
:100AC0000A438261806900220840009011460D208F
:100AD000FFF7BCFC0D20FFF7ADFC08BD002C01406A
:100AE000001002400222014620314A7700688268E5
:100AF00001235207520F062A02D002681A430260ED
:100B00004B77002070470168CB6801221343CB600C
:100B1000006881684907490F062902D0016811431E
:100B200001600020704700000222014620314A7710
:100B30000068026A074B1A4207D1026A9B101A42E8
:100B400003D1026852085200026001204877002059
:100B500070470000111100000168CA685208520075
:100B6000CA600068016A064A114207D1016A921000
:100B7000114203D101684908490001600020704713
:100B800011110000F8B5054604462035287F0128DC
:100B900017D001262E770220687720688268772791
:100BA000FF23BA431B029A4382600A68502A30D05E
:100BB0000EDC202A4AD006DC002A47D0102A39D180
:100BC00044E00220F8BD302A40D0402A32D135E03E
:100BD000602A26D0702A12D001231B03D01A29D0F4
:100BE000984227D1CB684A688968206800F022FAC9
:100BF0002068816801229203114381601AE0CB686A
:100C00004A688968206800F015FA206881683943CD
:100C1000F3E7CA684968206800F01FFA502120688D
:100C200006E0CA684968206800F028FA6021206858
:100C300000F00BFA6E7700202877F8BDCA68496883
:100C4000206800F00AFA40212068F1E71146206888
:100C5000EEE7704770B50446006801690025C94396
:100C60008907002915DBC168C943890711D4E91E2A
:100C7000016101202077206880698007204602D02A
:100C8000FFF7E7FF04E000F096F8204600F094F844
:100C9000257720680169C943490717D4C168C9434A
:100CA000490713D40421C943016102202077206839
:100CB00080698005800F204602D0FFF7CAFF04E05C
:100CC00000F079F8204600F077F825772068016970
:100CD000C943090716D4C168C943090712D40821BA
:100CE000C9430161042020772068C069800720463D
:100CF00002D0FFF7AEFF04E000F05DF8204600F000
:100D00005BF8257720680169C943C90617D4C16813
:100D1000C943C90613D41021C943016108202077B3
:100D20002068C0698005800F204602D0FFF791FF40
:100D300004E000F040F8204600F03EF825772068F7
:100D40000169C943C90708D1C168C943C90704D1AA
:100D5000891E0161204600F030F820680169C9430E
:100D6000090609D4C168C943090605D48021C943CD
:100D700001612046FFF750FE20680169C94349061A
:100D800009D4C168C943490605D44021C94301615A
:100D9000204600F013F820680169C943890609D488
:100DA000C168C943890605D42021C9430161204691
:100DB000FFF733FE70BD7047704770477047FEE71E
:100DC000F0B587B014216846FFF7EEF9354842695F
:100DD0000121C9040A43426142690A4005924269FD
:100DE00089100A43426142690A40059242694901F9
:100DF0000A43426142690A400592426909110A4365
:100E00004261406967240840274EE40005900022B3
:100E100021463046FFF7B3FA0927FF060022FE21DC
:100E20003846FFF7ACFA002230212048FFF7A7FA36
:100E3000002201211E48FFF7A2FA00940024012598
:100E400001950294694630460394FFF7EFF919487B
:100E500001906946009502943846FFF7E7F9FE20B5
:100E6000009002946946019503943846FFF7DEF935
:100E70003020009002946946019503940B48FFF7D7
:100E8000D5F9009502946946094801950394FFF746
:100E9000CDF909486A4631C269460548FFF7C6F9E7
:100EA00007B0F0BD001002400008004800140048E0
:100EB00000040048000012100408000010B586B0BD
:100EC0000024009417480194029403940494144954
:100ED00005940160144984604160046144611349D0
:100EE0008461C160FFF7CAFD002801D0FFF78AF9CD
:100EF00001200003009069460A48FFF743FE0028DE
:100F000001D0FFF77FF9202004A911C10548083955
:100F1000FFF784FD002801D0FFF774F906B010BD7B
:100F2000002C01408C0000207FBB0000E703000084
:100F300070477047704710B5FFF72EFA10BD30B5F7
:100F400091B030216846FFF72FF900240D9401205D
:100F500003900E940225102009940490009505201A
:100F60000F94C0040A900C9408950B946846FFF700
:100F700035FB07200C900E9401210D950F940CA8C1
:100F8000FFF768FA11B030BD7047000010B5FFF7E9
:100F900011FD0248FFF75EFE10BD00008C0000202E
:100FA000F0B502681D4B0124A4071D4D984203D0E3
:100FB000A04201D0A84203D17026B2434E6832430A
:100FC000184E194F98420DD0A0420BD0A84209D01C
:100FD000164CA04206D0B04204D0B84202D0144C05
:100FE000A04204D103242402A243CC6822438024DB
:100FF000A2434C69224302608A68C2620A68826224
:10100000984206D0B04204D0B84202D0084A90427A
:1010100001D10969016301214161F0BD002C01404A
:101020000004004000400140004401400020004016
:101030000048014030B58468FF252D021B02134390
:10104000AC430B432343836030BD826870239A43D3
:101050000A4307210A438260704730B5036A046A75
:101060006408640004628469F025AC4312012243E1
:101070000A24A3430B438261036230BD30B5036A87
:101080001024A34303628369046A0F252D0312030E
:10109000AB431A43A0239C430901214382610162AF
:1010A00030BDF8B5040C8BB2264682B25E430D0CFF
:1010B0001046370C584336048019002179411646F2
:1010C0006E43370C36048019794126466E438919E0
:1010D000F8BD00008307FF22DB0E9A408907090E46
:1010E0009940002808DB830809489B00181803680A
:1010F00093430B43036070470007000F08388308D1
:1011000004489B001818C36993430B43C36170479D
:1011100000E400E000ED00E002E008C8121F08C192
:10112000002AFAD170477047002001E001C1121F68
:10113000002AFBD17047000070B5054D0024A000C7
:1011400028588047641CE4B2042CF8D370BD00001A
:101150006C00002070B5054D0024A0002858804781
:10116000641CE4B20A2CF8D370BD000034000020E7
:1011700070B50924E406012220212046FFF7FFF87C
:10118000012240212046FFF7FAF801228021204663
:10119000FFF7F5F8084D012210212846FFF7EFF878
:1011A000012220212846FFF7EAF8012210212046DB
:1011B000FFF7E5F870BD00000014004870B5092481
:1011C000E406002220212046FFF7D9F80022402122
:1011D0002046FFF7D4F8002280212046FFF7CFF801
:1011E000104D002210212846FFF7C9F800222021C7
:1011F0002846FFF7C4F8002210212046FFF7BFF869
:10120000094C012210212046FFF7B9F801222021C4
:101210002046FFF7B4F8012211460448FFF7AFF863
:1012200070BD000000140048000800480004004899
:1012300010B50924E406012240212046FFF79FF85B
:10124000012280212046FFF79AF810BD70B50924CD
:10125000E406012220212046FFF791F800224021D8
:101260002046FFF78CF8002280212046FFF787F800
:10127000104D012210212846FFF781F8012220217C
:101280002846FFF77CF8012210212046FFF777F867
:10129000094C012210212046FFF771F8012220217C
:1012A0002046FFF76CF8012211460448FFF767F863
:1012B00070BD000000140048000800480004004809
:1012C00010B50924E406012220212046FFF757F833
:1012D000012240212046FFF752F8084C012210213C
:1012E0002046FFF74CF8012220212046FFF747F85F
:1012F000012210210248FFF742F810BD00140048F7
:101300000008004870B50924E40600222021204688
:10131000FFF735F8002240212046FFF730F8012280
:1013200080212046FFF72BF8104D0022102128467F
:10133000FFF725F8002220212846FFF720F8012298
:1013400010212046FFF71BF8094C002210212046EF
:10135000FFF715F8012220212046FFF710F801229F
:1013600011460448FFF70BF870BD00000014004858
:10137000000800480004004810B50924E4060122D2
:1013800020212046FEF7FBFF012240212046FEF7E8
:10139000F6FF012280212046FEF7F1FF01221021F5
:1013A0000448FEF7ECFF012210210348FEF7E7FF97
:1013B00010BD0000001400480008004870B5092462
:1013C000E406002220212046FEF7D9FF002240211A
:1013D0002046FEF7D4FF002280212046FEF7CFFFF3
:1013E000104D002210212846FEF7C9FF01222021BE
:1013F0002846FEF7C4FF012210212046FEF7BFFF5A
:10140000094C002210212046FEF7B9FF01222021BD
:101410002046FEF7B4FF012211460448FEF7AFFF55
:1014200070BD000000140048000800480004004897
:1014300010B50924E406012240212046FEF79FFF53
:10144000012280212046FEF79AFF0122102120462A
:10145000FEF795FF012210210148FEF790FF10BD15
:101460000008004870B50924E40601222021204626
:10147000FEF785FF002240212046FEF780FF002274
:1014800080212046FEF77BFF104D012210212846C7
:10149000FEF775FF012220212846FEF770FF00228B
:1014A00010212046FEF76BFF094C00221021204638
:1014B000FEF765FF012220212046FEF760FF012292
:1014C00011460448FEF75BFF70BD000000140048A1
:1014D000000800480004004810B50924E406012271
:1014E00020212046FEF74BFF012280212046FEF7F7
:1014F00046FF012210210748FEF741FF012210217B
:101500002046FEF73CFF012210210348FEF737FF7B
:1015100010BD0000001400480008004870B5092400
:10152000E406002220212046FEF729FF0122402167
:101530002046FEF724FF002280212046FEF71FFFF1
:10154000104D002210212846FEF719FF012220210C
:101550002846FEF714FF002210212046FEF70FFF59
:10156000094C002210212046FEF709FF012220210C
:101570002046FEF704FF012211460448FEF7FFFE55
:1015800070BD000000140048000800480004004836
:1015900070B50924E406012220212046FEF7EFFE63
:1015A000012280212046FEF7EAFE0B4D0122102188
:1015B0002846FEF7E4FE012220212846FEF7DFFE42
:1015C000012210212046FEF7DAFE012210210348F5
:1015D000FEF7D5FE70BD000000140048000800486A
:1015E00070B50924E406002220212046FEF7C7FE3C
:1015F000012240212046FEF7C2FE00228021204623
:10160000FEF7BDFE104D002210212846FEF7B7FE62
:10161000002220212846FEF7B2FE0022102120469B
:10162000FEF7ADFE094C002210212046FEF7A7FE72
:10163000012220212046FEF7A2FE01221146044885
:10164000FEF79DFE70BD0000001400480008004831
:101650000004004810B50924E40601222021204698
:10166000FEF78DFE012240212046FEF788FE012272
:1016700080212046FEF783FE10BD000070B50924CE
:10168000E406002220212046FEF779FE00224021B8
:101690002046FEF774FE002280212046FEF76FFEF2
:1016A000104D012210212846FEF769FE012220215B
:1016B0002846FEF764FE012210212046FEF75FFE59
:1016C000094C012210212046FEF759FE012220215B
:1016D0002046FEF754FE012211460448FEF74FFE55
:1016E00070BD0000001400480008004800040048D5
:1016F00070B50924E406012220212046FEF73FFEB2
:10170000012240212046FEF73AFE01228021204698
:10171000FEF735FE0A4D012210212846FEF72FFE66
:10172000012220212846FEF72AFE01221021204610
:10173000FEF725FE012210210248FEF720FE70BDB3
:10174000001400480008004870B50924E40600228F
:1017500020212046FEF713FE002240212046FEF7FE
:101760000EFE002280212046FEF709FE104D0022C9
:1017700010212846FEF703FE002220212846FEF70E
:10178000FEFD002210212046FEF7F9FD094C002243
:1017900010212046FEF7F3FD012220212046FEF70E
:1017A000EEFD012211460448FEF7E9FD70BD000080
:1017B00000140048000800480004004810B509243F
:1017C000E406012220212046FEF7D9FD0122402116
:1017D0002046FEF7D4FD012280212046FEF7CFFDF2
:1017E000012210210648FEF7CAFD012210212046E1
:1017F000FEF7C5FD012210210248FEF7C0FD10BD15
:10180000001400480008004870B50924E4060022CE
:1018100020212046FEF7B3FD002240212046FEF79E
:10182000AEFD002280212046FEF7A9FD104D0022CA
:1018300010212846FEF7A3FD012220212846FEF7AD
:101840009EFD002210212046FEF799FD094C002242
:1018500010212046FEF793FD012220212046FEF7AD
:101860008EFD012211460448FEF789FD70BD00007F
:1018700000140048000800480004004810B5002289
:1018800008210248FEF77BFD10BD0000000800485B
:1018900010B5012208210A48FEF771FD0924E4066B
:1018A000002202212046FEF76AFD00220421204684
:1018B000FEF765FD002208212046FEF760FD10BD01
:1018C0000008004810B5092000220221C006FEF7DA
:1018D00056FD10BD10B5002208210A48FEF74FFD45
:1018E0000924E406012202212046FEF748FD0022D9
:1018F00004212046FEF743FD002208212046FEF782
:101900003EFD10BD0008004810B50920002204214A
:10191000C006FEF734FD10BD10B5002208210A48AC
:10192000FEF72DFD0924E406002202212046FEF7E1
:1019300026FD012204212046FEF721FD0022082178
:101940002046FEF71CFD10BD0008004810B5092018
:1019500000220821C006FEF712FD10BD10B50022BE
:1019600008210A48FEF70BFD0924E40600220221A3
:101970002046FEF704FD002204212046FEF7FFFC6E
:10198000012208212046FEF7FAFC10BD000800489D
:1019900000252C46FEF708FDFFF7D1FAFFF710FAF5
:1019A000FFF78CFA00F058F8294E0127FF020421B6
:1019B0003046FEF7DFFC00281AD104213046FEF73E
:1019C000D9FC002814D100F051F804213046FEF76C
:1019D000D1FC0028F9D16D1CEDB2042D02D10025F7
:1019E00000F03AF804213046FEF7C4FC0028F9D094
:1019F00039463046FEF7BEFC00281AD1394630463B
:101A0000FEF7B8FC002814D100F030F83946304613
:101A1000FEF7B0FC0028F9D1641CE4B20A2C00D116
:101A200000240C48445539463046FEF7A3FC0028F4
:101A3000F9D008480278011F0A7042784A7082780B
:101A40008A70C078C870084600F01AF8AFE7000046
:101A5000000400480600002010B50348FFF742F8D4
:101A60000148FFF750F810BD8C00002010B5034866
:101A7000FFF75AF80148FFF76FF810BD8C000020FF
:101A8000F8B5164E002437460546503FA0003058A2
:101A90008047285D800038588047012C1CD0022CDC
:101AA0001AD000200D495C390978084209D000227B
:101AB00020210B48FEF763FC002201210948FEF7B4
:101AC0005EFC0220FEF7A0FBFFF744FBFFF734FBB0
:101AD000641C042CDADBF8BD0120E3E75C00002085
:101AE000000800480004004800000000000000005A
:101AF0000102030406070809181B00080000002063
:101B00008C00000018110008A41B00088C000020A5
:101B1000440400002811000800000000000000003C
:101B200000000000BD1100084D1200080513000858
:101B3000BD130008651400081D150008E115000814
:101B40007D160008491700080918000871110008DF
:101B500031120008C112000879130008311400087E
:101B6000D91400089115000855160008F116000850
:101B7000BD17000891180008D518000819190008A9
:101B80005D1900087D180008C5180008091900082B
:101B90004D190008010000000400000000000000D2
:041BA00000127A00B5
:04000005080000BD32
:00000001FF
